:020000040000fa
:080000000c01040000000000e7
:020000040000fa
:100200003c1c040000000000201d04000000000051
:100210007a480400000000004fe6200080792200a8
:100220000001880000000000050007000c00070026
:1002300088050200000000000040da000000fe0017
:100240004440a900000020000000e000030032004c
:1002500000002000a00188004440a8000000060023
:10026000a07a25000100200016003700620040003f
:10027000e0804800910188009001ba0062004000cf
:10028000e0804800910188009002ba0062004000be
:10029000e08048000002eb006028e10005003a0021
:1002a0008301e90007003300038009000059eb00d7
:1002b000040037006128e100010032000082eb00f9
:1002c00005000700910188001001ba000200e0005b
:1002d000e6ff3a00000005009101880080027800e6
:1002e00062004000e08048003559ba008301e9000f
:1002f000080032002559ba008301e90005003200e8
:100300000400e000f4ff320015d9ba008301e900cf
:10031000f1ff3a0000000600889fbe00e3044000a1
:100320000900a100808f540049003600e38f54007b
:1003300001003e0049002000906280000000e000c3
:1003400002003200800078000c00370041c5200018
:1003500003003700908f5400230036008080e800af
:10036000110078001100e000faff3a000f0037009a
:10037000928f54001c0036008280e8001101780042
:100380001100e000faff3a001001780041c520009a
:1003900003003700908f5400130036008080e8007f
:1003a00011007800820f5000faff3a008862800046
:1003b000890f54000100310009047800080078001a
:1003c0006b0007000000e00004003a00890f5400b1
:1003d0001f0032000804d100f5ff3700081878002c
:1003e00030000700d4ff3700110178009201780037
:1003f00064805100890f500003003100120090000a
:100400008008780007003700090041008008780064
:1004100092019000130098001100780012881400d7
:1004200009097800910178001100e0000400320011
:10043000130090008380e8000000e00001003a0013
:100440008000eb00916288000280e8000100370024
:100450000000eb004f04be0000000600000478001e
:100460000600370082004100c0628000e100780091
:100470000200e800b062880001000100b262800062
:10048000d0628000800f5100f6ff390040bb200091
:10049000c062880020022000d06288000800780036
:1004a0003a0007000000e000300032008080e900e0
:1004b00091027800e38f52002c0036000508a3005b
:1004c0002a003a00a26280000200e000020032002e
:1004d000828f50000400310002087800a162880079
:1004e0001600370003017800920190000300e0003d
:1004f00002003200818f5100faff390012027800a9
:1005000004004100808f500018003900810f500016
:1005100003003a0005094200820078000700370016
:100520000300e0000300320005804000808f51008e
:100530000e003900930098001101980011019000fd
:100540000200e0000900320011804000820f5000dc
:1005500006003a00522cef001100900011017800c3
:1005600090084100100090009000980000000600e4
:100570000000e000030034000c000700e10f400021
:1005800001003a000000eb00000006000c02e2004f
:1005900004003d000f42ab00020032000f02ab002e
:1005a000feff32000040da00feff3700889fbe00e9
:1005b00080047800106380000000e00003003a002f
:1005c000100007000000e0000a0035001063800002
:1005d0000900e00002003a0000047800060037003d
:1005e0000004780009004000060007000000e00059
:1005f00001003d000084eb00080078004f04be00bd
:1006000000000600800078000000e00004003a00ce
:1006100040c6200010638800010178000600370002
:100620000081eb0040e62000808f500002003e0079
:10063000116388000001eb00020078000000060052
:10064000889fbe008a9fbe00010578000100e0007f
:100650000400350008003c000000e00020003200eb
:100660000500370060001000e080180002003b0029
:1006700001f02c001a0037000004be006011b80021
:100680006b0920000982cf00020039000882cf00e8
:100690000441b000694252000e00320008003b00e5
:1006a00082817100610164008904d1000884d30053
:1006b0008b05e8000442e800f9ff3a000500370026
:1006c0000804440089844c008b05e9000442e900d9
:1006d000fbff3a00ab0007000af0a70001f0a00002
:1006e0004f05be004f04be0000000600889fbe00fc
:1006f0008a9fbe008c1f7800c8000700cf0033001f
:1007000003866c006450e1002e0032006420e1009a
:10071000330032006150e1002f0032006120e1001f
:100720003100320085855500eb07b000090020003c
:1007300008042000050037000804440089844c00a8
:100740000a0031000603430087834b000001530079
:1007500081815b00f8ff33000203be000800a000a7
:100760000804440089844c00f6ff3900c639dd00d6
:100770008301730001003200130020008904d100be
:100780000884d3000998a300050032000800a700e0
:100790000300a0008904d1000884d3008b05e80081
:1007a0008904d1000884d3000001eb000281d2004b
:1007b0007400070001f0a1000cf0a70001f0a000f8
:1007c000a70037006420e100a90032000801be0044
:1007d0000200be00f7ff37006120e100a4003200f4
:1007e0006000b800f3ff37000000200001f8270088
:1007f000f0ff37000001be00a00007000470a70052
:1008000003f0a1006509b100160032000d003500ab
:100810006828e10006003500f0ff2f00f1ff2700f7
:100820000300e00013003b00010028000000050069
:1008300000004000818048008502e900fcff3a008a
:1008400008003700f88f420002003c008000eb00f7
:10085000000005008100d1000080d3008502e8007f
:10086000fcff3a000300e00002003b0060001000c3
:10087000e080180000000600889fbe008a9fbe002e
:100880008c1f7800650007006c00330003866c0045
:100890006450e100240032006420e10027003200af
:1008a0006150e100220032006120e10021003200ad
:1008b0008b854200eb07b1000134b800003ab80064
:1008c0000804420089844a00013ab8000030b800a8
:1008d0008880400009014a00040033000000400005
:1008e00081804800020149008b05e900c909dd004b
:1008f000830170000100320013002000c814de00e4
:100900004814dd004709de001200b200c808de000e
:10091000088470001b00070001f0a1000cf0a70084
:1009200001f0a0004e0037006120e10050003200cd
:100930000801be000200be00f7ff37006150e10071
:10094000fcff3a004a003700839f68000100e00086
:1009500002003d0060001000e08018000300e0008d
:1009600002003d0060011100e081190058000700fd
:100970004f00e00002003b0060001000e080180023
:100980000000060081002000618055000b003d0042
:100990000b00200061fe2f000100e1001d0034006b
:1009a00082817100610164008904d1000884d30050
:1009b0000000e800faff3a007100200061006400c6
:1009c000030070000200600009003200610444006e
:1009d000e0844c000988a500050032008b05e80082
:1009e0006808e10002003a008904d1000884d300bd
:1009f000f20f20000258e10005003d00c75ddd0058
:100a0000f907b20089807500080078000000060030
:100a10000bf827008b007800000005000004be00e2
:100a2000160007000003be000405be000200be0061
:100a300012000700844f7500000006000200be008f
:100a40006450e100050036006420e1000200360039
:100a50000968a30001003a000800be000160a00080
:100a60004f0678004f05be004f04be000000060090
:100a7000f0ff2f00f1ff2700f9ff3700c70ade0063
:100a8000f107b200f50fb20008003200e1cf4200da
:100a9000020032000170a00024000500810f7000e8
:100aa000010032000408050044000500810f7000b9
:100ab00002003a00140005008502e9000000400031
:100ac00081c04800fcff3b000170a000240005002d
:100ad0006022b800060220000000d0008180d20011
:100ae0000482d2008582d2000000a00002025200df
:100af00083825a0003003b000202420083824a00c4
:100b00000000a1000603e900f3ff3a000000060020
:100b10000600fa00992007003b0c0700f20c0700c2
:100b200000003700e6c2bf000080fb004600de0088
:100b3000614060000081fb00e7c2bf000080fb0055
:100b40000000d100614060000080fb000000400018
:100b500080007800e7c2bf00614060000080fb00b9
:100b6000008040000000400080007800e6c2bf0026
:100b70000080fb004700de000080fb00008040009a
:100b80000000400000004100100798000000eb004a
:100b9000000f78001e009000200798002e009000a3
:100ba000e30f5000200032002e009000e30f5000b1
:100bb0000a003c002e009000e10f500016003200a9
:100bc0002e009000e10f500015003c002e00900018
:100bd0000000e0000e003200d2ff37002e0090002f
:100be000e50f5000140032002e009000e50f500079
:100bf0000f0035002e009000e60f5000100032006c
:100c00002e009000e70f500012003200c5ff3700a1
:100c100015000700c3ff370002020700c1ff3700bd
:100c2000e9020700bfff370067040700bdff370078
:100c30006c260700bbff3700d2210700b9ff370041
:100c400090012000000f78001e0078004c21070062
:100c5000b4ff3700b0042000000f78001e007800b9
:100c600047210700afff37001600fa006000b80008
:100c700050079800610798000000eb0040079800bb
:100c80000000eb00300798000000eb002007980000
:100c90001000200010079800e6c2bf000080fb0093
:100ca0004600de00614060000081fb00e7c2bf003b
:100cb0000080fb000000d100614060000080fb006c
:100cc0000000400080007800e7c2bf006140600083
:100cd0000080fb00008040000000400080007800a1
:100ce000e6c2bf000080fb004700de000080fb0082
:100cf0000080400000004000000f41001f2007005e
:100d0000c10b0700d70a0700e109070060092000ae
:100d1000030c070060092000c40b0700100020002e
:100d20006b0c0700100020005f0c0700b3013700b8
:100d30001e00e00003003a00100020001007980099
:100d4000020037000000eb00100798003e00900002
:100d5000cf80de003afe0700d2cc2c00c3f823007f
:100d600062fe0700a3fe0700300798002e009000e7
:100d7000cf80de0032fe0700d2cc2c00c3f8230067
:100d80005afe07009bfe0700200798003e009000d7
:100d90008002b000300798002e0090008002b00062
:100da000200798006000b80050079800610798007d
:100db000ec0037005e009000990a07008000780080
:100dc000f0f92000808f5000060034005e00900093
:100dd000820a07008000780050222000808f500097
:100de000990034005e009000ee00900070079800bb
:100df000010f980030002000010020007e019000cb
:100e00008e099000800f5100818f590058003200e8
:100e100030002000010020007e0190008e0990002b
:100e2000800f5100818f590014003c0010002000f9
:100e3000010020007e0190008e099000800f51007b
:100e4000818f590034003200100020000100200082
:100e50007e0190008e099000800f5100818f590013
:100e600038003c007e0090008e089000e00f50009b
:100e7000e08f58001e003200b40037005000200000
:100e8000010020007e0190008e099000800f51002b
:100e9000818f59004c0032005000200001002000da
:100ea0007e0190008e099000800f5100818f5900c3
:100eb0003a00350060002000010020007e01900013
:100ec0008e099000800f5100818f59004900320037
:100ed00070002000010020007e0190008e0990002b
:100ee000800f5100818f59004d003200970037006c
:100ef0003e0090006009b000300798002e0090007e
:100f00004006b00020079800110020000000eb0010
:100f1000720707008d0037003e0090004006b000c9
:100f200030079800ae009000c0f92f00008040000c
:100f3000200798001100200010002000670707001c
:100f4000820037003e009000c012b00030079800c9
:100f5000ae00900000e72f000080400020079800be
:100f600011002000200020005c07070077003700f8
:100f70003e0090000019b00030079800ae009000cd
:100f800040ed2f0000804000200798001100200055
:100f900030002000510707006c0037003e00900031
:100fa0000019b00030079800ae00900040ed2f000f
:100fb0000080400020079800110020005000200011
:100fc0004607070061003700be00900000e72f00d1
:100fd00000804000300798002e009000c012b00042
:100fe0002007980011002000600020003b07070048
:100ff00056003700be009000c0f92f00008040006e
:10100000300798002e0090004006b000200798009e
:101010001100200070002000300707004b0037004f
:101020003e0090006009b000300798002e0090004c
:101030004006b00020079800110020000000eb00df
:1010400026070700410037005e009000ee00900088
:10105000100f9800210f9800400020000100200090
:101060001e099000ae099000800f5100818f590039
:101070002700320040002000010020001e099000df
:10108000ae099000800f5100818f590006003c008e
:101090001e089000ae089000e00f5000e08f58004e
:1010a0002a003500160037006000200001002000f3
:1010b0001e099000ae099000800f5100818f5900e9
:1010c0001b00320060002000010020001e0990007b
:1010d000ae099000800f5100818f5900100035003b
:1010e00070002000010020001e099000ae09900051
:1010f000800f5100818f590011003200130037001a
:101100005e0090008000eb00f40607000f0037003f
:101110008000eb0050002000f00607000b003700b5
:101120008000eb0060002000ec060700070037009d
:101130008000eb0070002000e80607000300370085
:101140008000eb000000eb00e40607005e0090006a
:10115000ee00900061004000e080480050079800d9
:10116000610798005e019000ee0190006000200091
:1011700001002000800f5100818f59000dff3400c5
:101180000000eb0095090700800078000032200085
:10119000808f500006003c00700020008f0907007f
:1011a0008000780000322000808f5000350034002d
:1011b0006000b800500798006107980009003700e8
:1011c0005e00900011002000c40607005e00900041
:1011d000ee00900061004000e08048005007980059
:1011e000610798005e019000ee0190007000200001
:1011f00001002000800f5100818f5900f0ff340062
:101200001000200082080700803e2000c40a07006a
:10121000803e2000850a07006000b8005007980053
:101220006107980007003700000000005e00900092
:10123000ee00900061004000e080480050079800f8
:10124000610798005e019000ee019000f04f2300ce
:10125000c1002000800f5100818f5900f2ff34003f
:101260008b0807000000eb006908070000ce2f0084
:101270003007980000ce2f002007980010002000b3
:1012800040079800be00900040382000808f50003a
:10129000020034004038200030079800ae00900073
:1012a00040382000808f5000020034004038200079
:1012b00020079800be009000c0c72f00808f50000c
:1012c00002003d00c0c72f0030079800ae0090001c
:1012d000c0c72f00808f500002003d00c0c72f0004
:1012e000200798006000b800500798006107980038
:1012f00007003700000000005e009000ee00900044
:1013000061004000e08048005007980061079800a5
:101310005e019000ee019000f0c329000100200062
:10132000800f5100818f5900f2ff34002e00900091
:101330007b0a07003e0090003c0a07004e00900028
:10134000e10f500014003a006000b8005007980008
:101350006107980007003700000000005e00900061
:10136000ee00900061004000e080480050079800c7
:10137000610798005e019000ee019000f06928007e
:1013800011002000800f5100818f5900f2ff3400be
:101390000000eb0040079800e6c2bf000080fb00a1
:1013a0004600de00614060000081fb00e7c2bf0034
:1013b0000080fb000000d100614060000080fb0065
:1013c0000000400080007800e7c2bf00614060007c
:1013d0000080fb000080400000004000800078009a
:1013e000e6c2bf000080fb004700de000080fb007b
:1013f0000080400000004000000f41001e009000ef
:101400000000e0004afe3a00210807000000eb005f
:10141000430a07000000eb00040a07000080fa00fe
:10142000000006000c00fa00f70907000d0907008c
:10143000100020003a0a070010002000fb090700f6
:1014400010002000d007070011080700800c2000c2
:1014500030079800800c2000200798001000200022
:1014600010079800e6c2bf000080fb004600de00c7
:10147000614060000081fb00e7c2bf000080fb000c
:101480000000d100614060000080fb0000004000cf
:1014900080007800e7c2bf00614060000080fb0070
:1014a000008040000000400080007800e6c2bf00dd
:1014b0000080fb004700de000080fb000080400051
:1014c00000004000000f41002e009000140a0700a9
:1014d0003e009000d5090700b20037001000200040
:1014e0009e0f100003003a00100020001007980023
:1014f000020037000000eb00100798000000eb002e
:10150000b60807008000780000322000808f50006d
:1015100012003c0010002000b00807008000780096
:1015200000322000808f50000c003c006000200042
:10153000aa0807008000780000322000808f500049
:1015400006003c0070002000a4080700800078001e
:1015500000322000808f50003d003400c0c72f00b3
:1015600030079800c0c72f00200798002e00900079
:10157000eb0907003e009000ac0907006000b800ce
:10158000400798005107980007003700000000004e
:101590004e009000de00900061004000e0804800b6
:1015a00040079800510798004e019000de0190001e
:1015b000f00f270021002000800f5100818f59007b
:1015c000f2ff3400c0c72f003007980040382000d9
:1015d000200798002e009000d10907003e009000df
:1015e000920907006000b800400798005107980072
:1015f00007003700000000004e009000de00900061
:1016000061004000e08048004007980051079800c2
:101610004e019000de019000f07b2200910020003e
:10162000800f5100818f5900f2ff3400800c2000a0
:1016300030079800800c2000200798002e009000b2
:10164000b70907003e009000780907003c0037000a
:101650002000200061080700800078000032200090
:10166000808f500012003c00300020005b08070013
:101670008000780000322000808f50000c003c0079
:10168000400020005508070080007800003220004c
:10169000808f500006003c00500020004f080700db
:1016a0008000780000322000808f5000230034003a
:1016b00000322000300798000032200020079800f8
:1016c0002e009000960907003e0090005709070081
:1016d0006000b800400798005107980007003700e5
:1016e000000000004e009000de009000610040000d
:1016f000e080480040079800510798004e01900094
:10170000de019000f00f270021002000800f510023
:10171000818f5900f2ff3400800c200030079800c0
:10172000800c2000200798002e0090007c09070004
:101730003e0090003d0907000100370054070700f4
:10174000e6c2bf000080fb004600de006140600092
:101750000081fb00e7c2bf000080fb000000d10059
:10176000614060000080fb000000400080007800c5
:10177000e7c2bf00614060000080fb0000804000c5
:101780000000400080007800e6c2bf000080fb003f
:101790004700de000080fb000080400000004000a9
:1017a000000f41001e0090000000e0004bff3a00d7
:1017b0000000eb005a0907000000eb001b090700be
:1017c0000080fa00000006001600fa00881f78006a
:1017d0006000b80070079800010f98000000eb004f
:1017e000600798000000eb0050079800801a260060
:1017f00001002000300798004107980010002000e9
:1018000020079800e6c2bf000080fb004600de0013
:10181000614060000081fb00e7c2bf000080fb0068
:101820000000d100614060000080fb00000040002b
:1018300080007800e7c2bf00614060000080fb00cc
:10184000008040000000400080007800e6c2bf0039
:101850000080fb004700de000080fb0000804000ad
:10186000000040000000410010079800e608070053
:10187000fc0707000607070010002000c20607004b
:1018800010002000920907001000200086090700c0
:10189000400620002209070040062000e308070058
:1018a0003f0137001e009000e20f500003003a0095
:1018b0001000200020079800020037000000eb0015
:1018c000200798006e009000cf80de005cfb0700d0
:1018d000d2cc2c00c3f8230084fb0700c5fb070013
:1018e000600798005e009000cf80de0054fb070088
:1018f000d2cc2c00c3f823007cfb0700bdfb070003
:10190000500798006e0090008002b00060079800b9
:101910005e0090008002b000500798006000b800a0
:1019200070079800010f98008c0037007e0090002f
:10193000aa07070080007800301f2000808f500029
:10194000800034007e0090008e089000100f9800f8
:10195000210f980030002000010020001e09900097
:10196000ae099000800f5100818f59004f00320066
:1019700030002000010020001e099000ae099000f8
:10198000800f5100818f590014003c00100020008e
:10199000010020001e099000ae099000800f510048
:1019a000818f59003100320010002000010020001a
:1019b0001e099000ae099000800f5100818f5900e0
:1019c00032003c001e089000ae089000e00f50006e
:1019d000e08f58001e0032005a00370050002000ef
:1019e000010020001e099000ae099000800f5100f8
:1019f000818f59003d00320050002000010020007e
:101a00001e099000ae099000800f5100818f59008f
:101a10002e00350060002000010020001e0990000b
:101a2000ae099000800f5100818f590037003200bd
:101a300070002000010020001e099000ae099000f7
:101a4000800f5100818f5900380032003d0037006f
:101a50006e009000c012b000600798005e00900019
:101a60004006b00050079800360037006e00900026
:101a70004006b00060079800de009000c0f92f001b
:101a800000804000500798002e0037006e00900044
:101a9000c012b00060079800de00900000e72f0041
:101aa0000080400050079800260037006e0090002c
:101ab0000019b00060079800de00900040ed2f0094
:101ac00000804000500798001e0037006e00900014
:101ad0000019b00060079800de00900040ed2f0074
:101ae000008040005007980016003700ee0090007c
:101af00000e72f0000804000600798005e00900023
:101b0000c012b000500798000e003700ee009000a1
:101b1000c0f92f0000804000600798005e00900030
:101b20004006b00050079800060037006e00900095
:101b3000c012b000600798005e0090004006b00040
:101b4000500798007e0090008e08900061004000d1
:101b5000e080480070079800010f98007e01900017
:101b60008e0990006000200001002000800f5100cd
:101b7000818f59006dff34000000eb00170707004c
:101b80000004780070002000140707008000440063
:101b90004f08de00010040000080d100000f7800f7
:101ba0001e00e00002003c0010002000000f780042
:101bb0000000eb000907070080007800803e20004d
:101bc000808f500006003c00100020000307070033
:101bd00080007800803e2000808f50002800340074
:101be0000000eb00fd0607000004780070002000f4
:101bf000fa060700800f5400050034006009200039
:101c000060079800a0f62f00500798000a003700e0
:101c100070002000f106070080007800807020002e
:101c2000808f500004003400a0f62f006007980059
:101c300060092000500798006000b8007007980005
:101c4000010f980007003700000000007e009000a0
:101c50008e08900061004000e08048007007980006
:101c6000010f98007e0190008e099000f0342c0046
:101c700001002000800f5100818f5900f2ff3400d5
:101c8000ee009000e02e2000808f50000200340013
:101c9000e02e200060079800de009000e02e20007b
:101ca000808f500002003400e02e20005007980082
:101cb000ee00900020d12f00808f500002003d00e8
:101cc00020d12f0060079800de00900020d12f0067
:101cd000808f500002003d0020d12f005007980057
:101ce0006000b80070079800010f980007003700e7
:101cf000000000007e0090008e089000610040000f
:101d0000e080480070079800010f98007e01900065
:101d10008e0990003e009000ce009000800f510090
:101d2000818f5900f2ff35006e009000bf07070059
:101d30005e009000fa070700e6c2bf000080fb00cb
:101d40004600de00614060000081fb00e7c2bf008a
:101d50000080fb000000d100614060000080fb00bb
:101d60000000400080007800e7c2bf0061406000d2
:101d70000080fb00008040000000400080007800f0
:101d8000e6c2bf000080fb004700de000080fb00d1
:101d90000080400000004000000041001007980053
:101da0002e0090000000e000befe3a000000eb00b4
:101db000db0707000000eb009c0707004f047800da
:101dc0000080fa00000006002200fa000000eb008c
:101dd000400f98006000b800200f9800310f980065
:101de0006000b800000f9800110f980086070700e8
:101df0009c060700a60507001000200062050700ea
:101e000010002000320807001000200026080700fc
:101e10000000eb00700798000000eb0060079800de
:101e20000000eb00500798000000eb00400798000e
:101e30001000200030079800e6c2bf000080fb00c1
:101e40004600de00614060000081fb00e7c2bf0089
:101e50000080fb000000d100614060000080fb00ba
:101e60000000400080007800e7c2bf0061406000d1
:101e70000080fb00008040000000400080007800ef
:101e8000e6c2bf000080fb004700de000080fb00d0
:101e90000080400000004000000041002007980042
:101ea000e90237002e009000e30f500003003a00d3
:101eb0001000200030079800600137000000eb00a0
:101ec000300798005d0137002e009000e30f5000ae
:101ed00003003a001000200030079800020037008d
:101ee0000000eb00300798006000b800500f980029
:101ef000610f980007003700000000005e089000a6
:101f0000ee08900061004000e0804800500f98000b
:101f1000610f98005e099000ee099000f0692800ba
:101f200011002000800f5100818f5900f2ff340012
:101f30007e0090006002b000700798006e00900074
:101f40006002b000600798007e009000cf80de0045
:101f5000bbf907006266260063f6230046fa070015
:101f600024fa0700700798006e009000cf80de0012
:101f7000b3f907006266260063f623003efa070005
:101f80001cfa0700600798000000eb00100798009b
:101f9000a70037001e0090001006070080007800a0
:101fa000301f2000808f5000750034001e0090000c
:101fb000700f98007e089000e30f50003a00320046
:101fc0007e089000e30f50000a003c007e0890005d
:101fd000e10f50001e0032007e089000e10f50001b
:101fe00026003c007e0890000000e0000e00320059
:101ff0008c0037007e089000e50f50004000320052
:102000007e089000e50f5000320035007e089000f9
:10201000e60f5000450032007e089000e70f5000a8
:102020004d0032007f0037007e0090006009b00054
:10203000700798006e0090004006b000600798009e
:10204000110020000000eb0024030700750037009a
:102050007e0090004006b00070079800ee009000ef
:10206000c0f92f0000804000600798001100200098
:1020700010002000190307006a0037007e0090005e
:10208000c012b00070079800ee00900000e72f002b
:102090000080400060079800110020002000200010
:1020a0000e0307005f0037007e0090000019b000ab
:1020b00070079800ee00900040ed2f000080400077
:1020c0006007980011002000300020000303070083
:1020d000540037007e0090000019b000700798008f
:1020e000ee00900040ed2f00008040006007980057
:1020f0001100200050002000f802070049003700be
:10210000fe00900000e72f0000804000700798005c
:102110006e009000c012b00060079800110020000f
:1021200060002000ed0207003e003700fe00900036
:10213000c0f92f0000804000700798006e009000ea
:102140004006b000600798001100200070002000d9
:10215000e2020700330037007e0090006009b00003
:10216000700798006e0090004006b000600798006d
:10217000110020000000eb00d80207002900370002
:102180001e009000001798000e109000e40f500001
:10219000150032000e109000e40f500004003c00c7
:1021a0000e1090000000e0001e0035000a0037000d
:1021b0000e109000e60f5000130032000e10900039
:1021c000e60f50000c0035000e109000e70f500095
:1021d00011003200130037001e0090008000eb0059
:1021e000be0207000f0037008000eb005000200007
:1021f000ba0207000b0037008000eb0060002000ef
:10220000b6020700070037008000eb0070002000d6
:10221000b2020700030037008000eb000000eb0073
:10222000ae0207001e0090000000e80010079800b2
:102230001e009000e60f500056ff340030002000d2
:10224000660507008000780000322000808f500073
:1022500006003c0040002000600507008000780078
:1022600000322000808f500016003400c02b200068
:102270007007980000ce2f00600798006000b8003b
:10228000500f9800610f9800070037000000000011
:102290005e089000ee08900061004000e080480079
:1022a000500f9800610f98005e099000ee099000b1
:1022b000f069280011002000800f5100818f590023
:1022c000f2ff34000000eb004405070080007800b6
:1022d000401f2000808f500010003400700020004c
:1022e0003e05070080007800401f2000808f5000ce
:1022f0000a0034001000200040079800803e2000b3
:1023000001002000200f9800310f98000000eb0022
:10231000700798000000eb0060079800fe00900036
:10232000803e2000808f500002003400803e20005c
:1023300070079800ee009000803e2000808f5000d3
:1023400002003400803e200060079800fe009000ec
:1023500080c12f00808f500002003d0080c12f00ff
:1023600070079800ee00900080c12f00808f500011
:1023700002003d0080c12f00600798006000b80097
:10238000500f9800610f9800070037000000000010
:102390005e089000ee08900061004000e080480078
:1023a000500f9800610f98005e099000ee099000b0
:1023b000f0c3290001002000800f5100818f5900d7
:1023c000f2ff34006e009000550607007e0090007a
:1023d00016060700e6c2bf000080fb004600de00d4
:1023e000614060000081fb00e7c2bf000080fb008d
:1023f0000000d100614060000080fb000000400050
:1024000080007800e7c2bf00614060000080fb00f0
:10241000008040000000400080007800e6c2bf005d
:102420000080fb004700de000080fb0000804000d1
:102430000000400000004100200798004e0090007e
:102440000000e00010013a003e0090000000e000b3
:102450009dfe3a000c0137002e009000e30f500063
:1024600003003a00100020003007980002003700f7
:102470000000eb003007980020002000d704070080
:1024800080007800f0182000808f500041003c0050
:10249000c0122000700798002003200060079800f9
:1024a0006e0090001e0607007e009000df0507000a
:1024b0006000b800500f9800610f980007003700c7
:1024c000000000005e089000ee08900061004000ef
:1024d000e0804800500f9800610f98005e0990005e
:1024e000ee099000f0c3290001002000800f510088
:1024f000818f5900f2ff34002e089000be08900032
:1025000061005000e0805800200f9800310f9800c3
:102510002000370040ed2f0070079800c012200007
:10252000600798006e009000fd0507007e00900097
:10253000be0507006000b800500f9800610f9800ba
:1025400007003700000000005e089000ee089000d1
:1025500061004000e0804800500f9800610f980033
:102560005e099000ee099000f0c3290001002000f0
:10257000800f5100818f5900f2ff34002e08900027
:10258000be08900061005000e0805800200f9800c5
:10259000310f98000000eb009004070080007800e5
:1025a000301f2000808f5000daff3c0070002000b8
:1025b0008a0407008000780070252000808f50007a
:1025c000d4ff3c0010002000840407008000780045
:1025d000d0152000808f5000ceff3c00200020004e
:1025e0007e0407008000780080252000808f500046
:1025f0001a003400a00f200070079800c0122000bd
:10260000600798006e009000c50507007e009000ee
:10261000860507006000b800500f9800610f980011
:1026200007003700000000005e089000ee089000f0
:1026300061004000e0804800500f9800610f980052
:102640005e099000ee099000f0c32900010020000f
:10265000800f5100818f5900f2ff340020002000cc
:102660005e04070080007800f0182000808f500082
:10267000380034000000eb005804070080007800a8
:10268000301f2000808f500032003c00700020007e
:10269000520407008000780070252000808f5000d1
:1026a0002c003c00100020004c0407008000780043
:1026b000d0152000808f500026003c0060002000d4
:1026c000460407008000780000322000808f500010
:1026d00020003c002000200040040700800078001b
:1026e00080252000808f50001a003c00e01520005b
:1026f00070079800e0152000600798006e009000b9
:10270000870507007e009000480507006000b800bc
:10271000500f9800610f980007003700000000007c
:102720005e089000ee08900061004000e0804800e4
:10273000500f9800610f98005e099000ee0990001c
:10274000f0c3290001002000800f5100818f590043
:10275000f2ff3400500020002004070080007800c1
:1027600080252000808f500006003c006000200083
:102770001a0407008000780080252000808f500018
:102780001a003400c012200070079800a00f20002b
:10279000600798006e009000610507007e009000c1
:1027a000220507006000b800500f9800610f9800e4
:1027b00007003700000000005e089000ee0890005f
:1027c00061004000e0804800500f9800610f9800c1
:1027d0005e099000ee099000f0c32900010020007e
:1027e000800f5100818f5900f2ff34002e089000b5
:1027f000be08900061005000e0805800200f980053
:10280000310f98002e089000be089000e00f500095
:10281000e08f580002003d00200020004007980093
:10282000e6c2bf000080fb004600de0061406000a1
:102830000081fb00e7c2bf000080fb000000d10068
:10284000614060000080fb000000400080007800d4
:10285000e7c2bf00614060000080fb0000804000d4
:102860000000400080007800e6c2bf000080fb004e
:102870004700de000080fb000080400000004000b8
:1028800000004100200798004e009000e10f50002a
:1028900003003a003e0090000000e000eefe3a0027
:1028a0004e009000e20f50004d003a000000eb0097
:1028b000000f7800040037001e007800110020008f
:1028c000060107001e0fe800600020009e0f1000a8
:1028d000f9ff34006000b800200f9800310f980015
:1028e0000000eb004007980000e72f0070079800f9
:1028f00000192000600798006e009000080507008e
:102900007e009000c90407006000b800500f9800d6
:10291000610f980007003700000000005e0890007b
:10292000ee08900061004000e0804800500f9800e1
:10293000610f98005e099000ee099000f02f2500cd
:1029400071002000800f5100818f5900f2ff340088
:102950000000eb00000f7800040037001e00780034
:102960008000eb00dd0007001e0fe8006000200083
:102970009e0f1000f9ff3400c0122000700798006d
:10298000c0122000600798006e009000e404070069
:102990007e009000a50407006000b800500f98006a
:1029a000610f980007003700000000005e089000eb
:1029b000ee08900061004000e0804800500f980051
:1029c000610f98005e099000ee099000f0972a00d0
:1029d00031002000800f5100818f5900f2ff340038
:1029e000e6c2bf000080fb004600de0061406000e0
:1029f0000081fb00e7c2bf000080fb000000d100a7
:102a0000614060000080fb00000040008000780012
:102a1000e7c2bf00614060000080fb000080400012
:102a20000000400080007800e6c2bf000080fb008c
:102a30004700de000080fb000080400000004000f6
:102a400000004100200798003e0090000000e000d8
:102a500014fd3a000000eb00b10407000000eb0099
:102a6000720407000080fa00000006000000fa006f
:102a7000190007000080fa00000006000600fa00b6
:102a8000000f7800110798002207980005e1a900bf
:102a9000500020002e000700800078001e00780003
:102aa00001087800600020002900070080007800fd
:102ab0001e0090000108780070002000240007002c
:102ac000800078002e0090000108780005e1a80041
:102ad0000080fa00000006000000fa000000eb0091
:102ae0002015880020158000101588001015800022
:102af00000158800a802a800a822a800a842a900e2
:102b0000a862a900a882a900a8a2a900a8c2a90039
:102b1000a8e2a900a902a900a922a900a942a90026
:102b2000a962a900a982a900a9a2a900a9c2a90015
:102b3000a9e2a900200120002015880070002000d3
:102b400030158800a1e2a8000080fa00000006000d
:102b50000600fa00100798001e009000ef0f5000ca
:102b6000030036000000eb00200798001200370039
:102b70001e00900030158800a022a8000000eb0085
:102b8000000f7800010037001e0fe80070022000df
:102b90009e0f1000fcff34008560a900a022a90050
:102ba00085c0bf00684060000004e000fcff320008
:102bb00000148000200798002e0090000080fa008a
:102bc000000006000000fa00c4c2a900c4e2a90087
:102bd000c522a900c582a900c542a900c5a2a900b5
:102be000c5c2a900c5e2a900c0c2a900c0e2a900ef
:102bf000c122a900c182a900c142a900c1a2a900a5
:102c0000c1c2a900c1e2a900d022a900cc22a9001a
:102c1000d042a900cc42a900e2e2a900e302a90047
:102c2000e802a900e822a900dee2a900df02a9006b
:102c3000e402a900e422a900e202a900de02a90040
:102c4000d602a900d622a900d642a900d662a900c0
:102c5000d682a900d6a2a900d6c2a900d6e2a900b0
:102c6000d202a900d222a900d242a900d262a900b0
:102c7000d282a900d2a2a900d2c2a900d2e2a900a0
:102c8000d1a2a900cda2a900e842a900e862a9004a
:102c9000e442a900e462a900de22a800dec2a80086
:102ca000e4c2a800e4e2a800e502a800e522a8002a
:102cb000de22a800d302a800d322a800d342a80095
:102cc000d362a800d382a800d3a2a800d3c2a800d0
:102cd000d3e2a8000080fa00000006000600fa0017
:102ce000000f7800110798001e0078002007980058
:102cf0002e009000e30f50007d0032002e00900067
:102d0000e30f500007003e002e009000e10f50003e
:102d1000380032002e009000e10f500057003e00b6
:102d20000d0037002e009000e50f5000b200320079
:102d30002e009000e50f5000900039002e0090000a
:102d4000e60f5000d10032002e009000e70f500037
:102d5000f5003200160137001e009000e10f500010
:102d600014003600c4c2bf000080fb004600de0035
:102d7000614060000004a2006140600061406000aa
:102d80000040400000404000004040000040400043
:102d90000040400000414000412c2000914078005c
:102da000f0cbb30000c0600002407000c4e2b70086
:102db000730137001e0090006140600061406000b8
:102dc0000040400000404000004040000040400003
:102dd0000040400000414000412c2000914078001c
:102de000f0cbb30000c0600002407000c4e2b70046
:102df000630137001e009000e10f50001100360003
:102e0000c4c2bf000080fb004700de000004a20037
:102e10006140600000404000004040000040400031
:102e20000040400000404000004040008040400022
:102e3000c4c2bf000074a10001407000c4e2b7002a
:102e40004f0137001e0090006140600000404000cc
:102e50000040400000404000004040000040400072
:102e60000040400080404000c4c2bf000074a10088
:102e700001407000c4e2b700410137001e0090001d
:102e8000e10f50000f003600c5c2bf000080fb00fc
:102e90000000d100614060000004a20061406000b9
:102ea0006140600000414000512c200091407800ba
:102eb000d0cfb30000c0600002407000c5e2b70090
:102ec0002f0137001e0090006140600061406000eb
:102ed00000414000512c200091407800d0cfb30039
:102ee00000c0600002407000c5e2b7002401370056
:102ef0001e009000e10f500012003600c5c2bf0056
:102f00000080fb004400de00614060000004a2007d
:102f100061406000614060000040400000404000af
:102f20000040400000414000512c200091407800ba
:102f3000f0ceb30000c0600002407000c5e2b700f0
:102f40000f0137001e00900061406000614060008a
:102f50000040400000404000004040000041400070
:102f6000512c200091407800f0ceb30000c06000ea
:102f700002407000c5e2b700010137001e0090005a
:102f8000e10f500010003600c5c2bf000080fb00fa
:102f90004200de00614060000004a2006140600069
:102fa000614060000040400000414000512c200082
:102fb00091407800b0cfb30000c0600002407000c4
:102fc000c5e2b700ee0037001e00900061406000cf
:102fd000614060000040400000414000512c200052
:102fe00091407800b0cfb30000c060000240700094
:102ff000c5e2b700e20037001e009000e10f50006c
:1030000013003600c5c2bf000080fb004500de0093
:10301000614060000004a200614060006140600007
:1030200000404000004040000040400000404000a0
:1030300000414000512c200091407800f0cdb300b9
:1030400000c0600002407000c5e2b700cc0037004d
:103050001e00900061406000614060000040400040
:10306000004040000040400000404000004140005f
:10307000512c200091407800f0cdb30000c06000da
:1030800002407000c5e2b700bd0037001e0090008e
:10309000e10f500014003600c5c2bf000080fb00e5
:1030a0004600de00614060000004a2006140600054
:1030b000614060000040400000404000004040008f
:1030c000004040000040400000414000512c2000e2
:1030d00091407800f0cbb30000c060000240700067
:1030e000c5e2b700a60037001e00900061406000f6
:1030f000614060000040400000404000004040004f
:10310000004040000040400000414000512c2000a1
:1031100091407800f0cbb30000c060000240700026
:10312000c5e2b700960037001e009000e10f500086
:1031300011003600c5c2bf000080fb004700de0062
:103140000004a200614060000040400000404000d8
:10315000004040000040400000404000004040006f
:1031600080404000c5c2bf000074a1000140700053
:10317000c5e2b700820037001e0090006140600089
:10318000004040000040400000404000004040003f
:10319000004040000040400080404000c5c2bf00e9
:1031a0000074a10001407000c5e2b7007400370050
:1031b0001e00900061406000004040000040400060
:1031c00000404000004040000040400000404000ff
:1031d00080404000c5c2bf000074a10001407000e3
:1031e000c5e2b700c5c2bf000080fb004700de009b
:1031f000614060000040400000404000004040004e
:10320000004040000040400000414000512c2000a0
:1032100091407800f0cbb30000c060000240700025
:10322000c5e2b700c5c2bf000080fb004600de005b
:10323000614060006140600000404000004040008c
:10324000004040000040400000414000512c200060
:1032500091407800f0cdb30000c0600002407000e3
:10326000c5e2b700c5c2bf000080fb004500de001c
:10327000614060006140600000404000004140004b
:10328000512c200091407800b0cfb30000c0600006
:1032900002407000c5e2b700c5c2bf000080fb005d
:1032a0004200de006140600061406000004040007c
:1032b000004040000040400000414000512c2000f0
:1032c00091407800f0ceb30000c060000240700072
:1032d000c5e2b700c5c2bf000080fb004400de00ad
:1032e000614060006140600000414000512c2000be
:1032f00091407800d0cfb30000c060000240700061
:10330000c5e2b700c5c2bf000080fb000000d100cd
:10331000614060000040400000404000004040002c
:10332000004040000040400000404000804040001d
:10333000c4c2bf000074a10001407000c4e2b70025
:10334000c4c2bf000080fb004700de006140600097
:10335000004040000040400000404000004040006d
:103360000040400000414000412c20009140780086
:10337000f0cbb30000c0600002407000c4e2b700b0
:103380000080fa00000006000200fa00000f78003a
:10339000100020009e0f100010003600d0c2bf00a9
:1033a0000080fb004200de00614060000004a200db
:1033b000614060006140600000404000004140000a
:1033c000012d200091407800b0cfb30000c0600014
:1033d00002407000d0e2b7000b0037001e007800fa
:1033e00061406000614060000040400000414000da
:1033f000012d200091407800b0cfb30000c06000e4
:1034000002407000d0e2b7000080fa000000060021
:103410000200fa00000f7800100020009e0f10003c
:103420000f003600d0c2bf000080fb000000d100ba
:10343000614060000004a2006140600061406000e3
:1034400000414000012d200091407800d0cfb30012
:1034500000c0600002407000d0e2b7000a003700f0
:103460001e00780061406000614060000041400043
:10347000012d200091407800d0cfb30000c0600043
:1034800002407000d0e2b7000080fa0000000600a1
:103490000000fa00c4c2a900c4e2a900c522a90024
:1034a000c582a900c542a900c5a2a900c5c2a9003c
:1034b000c5e2a9000080fa00000006000000fa0042
:1034c0000000eb00200888004110200091407800a7
:1034d000f0ccb30000c060000044a00004e1b700dd
:1034e0000000eb0000088800502820001008880029
:1034f0008460a9008c60a80005e1a8000080fa00a3
:103500000000060000a0fe003600f800849fbe0008
:10351000869fbe003400f80004c0b300a4018800f8
:103520000200fa008460a900c05f8000000f7800ec
:103530001e007800e10f5000330032001e007800ba
:10354000e10f500004003c001e0078000000e00085
:10355000080032009a0037001e007800e20f500089
:103560004e0032001e007800e30f50007000320061
:1035700093003700d05f80000000e0000c003a00ac
:1035800050282000100888008000200070fd0700ef
:10359000e05f8800c00020006dfd0700206088000b
:1035a000e2e2a80010002000d05f8800840037000d
:1035b000e0f12000100888008000200064fd070072
:1035c00060608800c000200061fd0700a0608800e6
:1035d000e15f80006060800000805000e060880053
:1035e00021608000a0608000008050002061880081
:1035f000e2e2a9000000eb00d05f8800100020008c
:10360000c05f88006e003700d05f80000000e000df
:103610000c003a005028200010088800900020007c
:103620004bfd0700f05f8800d000200048fd070038
:1036300030608800e302a80010002000d05f8800fe
:103640005f003700e0f120001008880090002000a3
:103650003ffd070070608800d00020003cfd07009f
:10366000b0608800f15f80007060800000805000d2
:10367000f060880031608000b06080000080500001
:1036800030618800e302a9000000eb00d05f8800f1
:1036900020002000c05f880049003700d05f800014
:1036a0000000e0000c003a005028200010088800bc
:1036b000a000200026fd070000608800e000200038
:1036c00023fd070040608800e802a80010002000e9
:1036d000d05f88003a003700e0f120001008880031
:1036e000a00020001afd070080608800e000200094
:1036f00017fd0700c06088000160800080608000c6
:10370000008050000061880041608000c06080003f
:103710000080500040618800e802a9000000eb0032
:10372000d05f880030002000c05f88002400370090
:10373000d05f80000000e0000c003a00502820001c
:1037400010088800b000200001fd0700106088000c
:10375000f0002000fefc070050608800e822a8006e
:1037600010002000d05f880015003700e0f1200035
:1037700010088800b0002000f5fc07009060880069
:10378000f0002000f2fc0700d0608800116080008b
:1037900090608000008050001061880051608000bf
:1037a000d06080000080500050618800e822a900ad
:1037b0000000eb00d05f88000000eb00c05f8800d5
:1037c0000080fa003400f9004f03be004f02be0033
:1037d0003600f9000080fe00004006000400fa00f8
:1037e000000f7800700020009e0f100003003600cc
:1037f0000000eb0010079800060037001e0078005c
:1038000080004000c0c1200000804000100078000f
:10381000100798001e0090000080fa0000000600cb
:103820000400fa00000f7800700020009e0f1000c6
:10383000030036000000eb00100798000600370078
:103840001e00780080004000c0bf200000804000c3
:1038500010007800100798001e0090000080fa0009
:10386000000006000000fa009bfc070013ff0700a1
:103870000080fa00000006000400fa00c061800029
:103880000000e0001f0032006161800080da2f003c
:10389000808f50001b003500616180008025200072
:1038a000808f500017003c00d602a900d622a90044
:1038b000d642a900d662a9000000eb00c0618800d2
:1038c0006061800000017800120798001e019000de
:1038d0000200e00003003d001e0190000201ea002a
:1038e00012079800007122001e01900011000900cb
:1038f0000200d800ef005000c0c32100e70107001c
:103900004d003700606180000000e0000c003400d2
:10391000a06180000000e800a06188008061800054
:103920000000e90080618800806180000000e00004
:103930000e003d0030002000806188000b00370041
:10394000a06180000000e900a06188008061800023
:103950000000e8008061880080618000e30f500073
:10396000020034000000eb0080618800806180006c
:10397000000f78001e017800e10f510013003200a3
:103980001e007800e10f500004003c001e0178008a
:103990000200e000080032001a0037001e00780024
:1039a000e20f50000e0032001e017800e30f5100bc
:1039b0001000320013003700d602a900d622a8005a
:1039c000d642a900d662a8000e003700d602a90090
:1039d000d622a800d642a800d662a9000900370066
:1039e000d602a800d622a900d642a800d662a90015
:1039f00004003700d602a800d622a900d642a900aa
:103a0000d662a8006161800080da2f00808f5000ac
:103a1000090035006161800080252000808f500002
:103a200005003c0010002000c0618800f10020006b
:103a3000c0c32100990107000080fa0000000600c1
:103a40000400fa00d06180000000e0001f00320096
:103a50007161800080da2f00808f50001b003500dc
:103a60007161800080252000808f500017003c008d
:103a7000d682a900d6a2a900d6c2a900d6e2a90082
:103a80000000eb00d06188007061800000017800c8
:103a9000120798001e0190000200e00003003d00a4
:103aa0001e0190000201ea00120798000071220036
:103ab0001e019000110009000200d800ef00500024
:103ac00000d22100750107004d00370070618000b1
:103ad0000000e0000c003d00b06180000000e90043
:103ae000b0618800906180000000e900906188006a
:103af000906180000000e0000e003d0030002000da
:103b0000906188000b003700b06180000000e80081
:103b1000b0618800906180000000e800906188003a
:103b200090618000e30f5000020034000000eb00c1
:103b30009061880090618000000f78001e0178007d
:103b4000e10f5100130032001e007800e10f500019
:103b500004003c001e0178000200e0000800320072
:103b60001a0037001e007800e20f50000e003200ed
:103b70001e017800e30f51001000320013003700df
:103b8000d682a900d6a2a800d6c2a900d6e2a80073
:103b90000e003700d682a900d6a2a800d6c2a8007f
:103ba000d6e2a90009003700d682a800d6a2a90053
:103bb000d6c2a800d6e2a90004003700d682a80029
:103bc000d6a2a900d6c2a900d6e2a80071618000e1
:103bd00080da2f00808f500009003500716180006d
:103be00080252000808f500005003c001000200040
:103bf000d0618800f100200000d2210027010700d9
:103c00000080fa00000006000000fa008000eb00cf
:103c1000c0c32100c90007008000eb0000d22100d2
:103c2000c60007000080fa00000006000200fa004b
:103c3000000f7800d602a900d622a900d642a9001a
:103c4000d662a9001e00e00006003a000000eb006a
:103c5000606188008000eb00c0c321000f010700f5
:103c60002d00370080c12f009e0f10000a003d007c
:103c700080c12f006061880062618000008f2d008c
:103c8000110009000200d80080007800c0c32100a4
:103c90000201070020003700803e20009e0f100028
:103ca0000a003400803e200060618800626180006c
:103cb00000712200110009000200d8008000780085
:103cc000c0c32100f5000700130037001e00780074
:103cd000606188001e00e00008003d00008f2d009c
:103ce0001e017800110009000200d8008000780051
:103cf000c0c32100e900070007003700007122005f
:103d00001e017800110009000200d8008000780030
:103d1000c0c32100e10007000080fa000000060097
:103d20000200fa00000f7800d682a900d6a2a900ee
:103d3000d6c2a900d6e2a9001e00e00006003a00a3
:103d40000000eb00706188008000eb0000d22100d1
:103d5000d20007002d00370080c12f009e0f1000f9
:103d60000a003d0080c12f007061880072618000f0
:103d7000008f2d00110009000200d800800078009b
:103d800000d22100c500070020003700803e20003f
:103d90009e0f10000a003400803e200070618800f1
:103da0007261800000712200110009000200d80039
:103db0008000780000d22100b8000700130037000f
:103dc0001e007800706188001e00e00008003d00c1
:103dd000008f2d001e017800110009000200d8009c
:103de0008000780000d22100ac00070007003700f7
:103df000007122001e017800110009000200d800a5
:103e00008000780000d22100a40007000080fa00a2
:103e1000000006000800fa00000f78001107980063
:103e20001e007800300798003e0190000200e0007c
:103e300003003d003e0090000000ea0030079800bb
:103e40001e019000220798002e0090000000e00064
:103e500003003d002e0190000201ea0022079800b5
:103e60003e0090002e01900082004000803e200025
:103e7000808f500006003c001e0090001e001000c5
:103e80006aff07001e0090001e004000a4ff07000c
:103e90000080fa00000006000000fa00a061800027
:103ea0000080fa00000006000200fa00000f78000f
:103eb0001e007800a06188000080fa000000060063
:103ec0000000fa00b06180000080fa0000000600e7
:103ed0000200fa00000f78001e007800b061880030
:103ee0000080fa00000006000000fa000000eb006d
:103ef000800888000111200091407800f0ccb300c8
:103f000000c0600010e1b7000000eb00300888003e
:103f1000205c20006008880084c0a9008cc0a80034
:103f200011e1a8000080fa00000006000000fa007d
:103f300011e1a9000080fa00000006000800fa0064
:103f40001007980021079800e0628000000f7800b9
:103f50000b0037001e007800b00090001e0090009b
:103f6000808f500003003a001100200031079800b4
:103f70001f0037001e007800c0009000010f78007d
:103f80001e00e000f3ff3a00a0002000e2f007006e
:103f9000000f78001e00e00002003a001000200030
:103fa0002ef10700ae0090001e0078000108780096
:103fb0009e0078000000eb00900098009e007800c2
:103fc00010c0b300c04098001e0078009e00900012
:103fd00031009800e16280001e00780041009800e6
:103fe0001e007800e0628800110020003107980070
:103ff0003e0090000080fa00000006000800fa0071
:10400000200798000000eb0010079800e062800095
:10401000000f78001a0037001e007800b0009000f2
:104020002e009000808f500010003a001e0090007b
:104030000000e000050032001e007800c000900083
:104040001e00900041009800030037001e00780019
:1040500040009000e06288001e00780011f1070027
:104060001100200031079800090037001e00780079
:10407000100798001e007800c0009000010f780023
:104080001e00e000e4ff3a00200020003007980006
:104090003e0090000080fa00000006000800fa00d0
:1040a0001007980021079800e0628000000f780058
:1040b0000e0037001e007800b00090001e00900037
:1040c000808f500006003a00ae0090001e0078007d
:1040d0000108780011002000310798000700370020
:1040e0001e007800c0009000010f78001e00e00064
:1040f000f0ff3a0020002000300798003e009000ba
:104100000080fa00000006000600fa001007980080
:10411000e0628000000f78000e0037001e0078007b
:10412000b00090001e009000808f500006003a0002
:104130009e0078000000eb00900098001100200025
:1041400021079800070037001e007800c00090008b
:10415000010f78001e00e000f0ff3a002000200070
:10416000200798002e0090000080fa000000060052
:104170000600fa0010079800e0628000000f780047
:104180000e0037001e007800b00090001e00900066
:10419000808f500006003a009e0078000040eb003f
:1041a000c040980011002000210798000700370048
:1041b0001e007800c0009000010f78001e00e00093
:1041c000f0ff3a0020002000200798002e00900009
:1041d0000080fa00000006000600fa0010079800b0
:1041e000e0628000000f78000e0037001e007800ab
:1041f000b00090001e009000808f500006003a0032
:104200009e00780010c0b300c0409800110020004c
:1042100021079800070037001e007800c0009000ba
:10422000010f78001e00e000f0ff3a00200020009f
:10423000200798002e0090000080fa000000060081
:104240003600f800809fbe00829fbe00849fbe00a3
:10425000869fbe003400f80000c0b300a0018800b3
:104260000200fa00e0628000000f780084c0a9001c
:104270001e0037001e00780040409000e14f5000c3
:1042800017003a001e007800100078000000e000df
:10429000130032001e007800100090008000e8003b
:1042a0001e007800110098001e0078001000900099
:1042b000800078001e007800100078000000e900ff
:1042c000808f5000060036001e00780030009000fd
:1042d000000001009e0078000000eb0090009800b4
:1042e0001e007800c0009000010f78001e00e00062
:1042f000e0ff3a000080fa003400f9004f03be00ee
:104300004f02be004f01be004f00be003600f90054
:10431000004006002200fa0070079800010f980084
:10432000120f9800230f9800340f9800450f980043
:10433000560f98007e009000200db0007007980086
:104340000e08900067004000000f98004e08900093
:104350000000e000030032003e0890000000e00092
:1043600003003a000080eb00600f98000401370062
:10437000fe0090001e089000808040002035200044
:10438000808f5000030036008080eb00610f9800a2
:10439000fb0037008e0890002e08900080804000bf
:1043a000701e2000808f5000030036000080eb005c
:1043b000600f9800f20037001e0890003e09900040
:1043c000110009000280d8008000fd000000e0001c
:1043d000030032008080eb00610f9800e800370096
:1043e0002e0890004e099000110009000280d800ac
:1043f0008000fd000000e000030032000080eb00c0
:10440000600f9800de0037004e08900063006000e7
:104410000000e00033003a003e08900063006000b6
:104420000000e0000f003a0030032000000f780089
:104430004e0890004200de00200798003e089000e1
:104440004200de00100798000e0890006400500043
:10445000000f98007e0090006400500070079800e4
:10446000500037003e089000610060000000e0004e
:104470000f003a0010012000000f78004e08900055
:104480000000d100200798003e0890000000d100f5
:10449000100798000e0890000080e900000f9800b7
:1044a0007e0090000080e900700798003d00370012
:1044b00040042000000f7800ce08900021079800eb
:1044c0003e089000100798000e0890000000e900d8
:1044d000000f98007e0090000000e900700798002f
:1044e000300037004e089000610060000000e000de
:1044f00020003a003e089000610060000000e000eb
:104500000f003a0010012000000f78004e089000c4
:104510000000d100200798003e0890000000d10064
:10452000100798000e0890000080e900000f980026
:104530007e0090000080e9007007980019003700a5
:1045400040042000000f7800ce089000210798005a
:104550003e089000100798000e0890000000e90047
:10456000000f98007e0090000000e900700798009e
:104570000c00370040042000000f7800be089000b7
:10458000110798004e089000200798000e08900030
:104590000000e900000f98007e0090000000e90094
:1045a000700798001e0090000000e9005007980076
:1045b0002e0090000000e900600798001e0890009f
:1045c0003e099000110009000280d80040079800c1
:1045d0002e0890004e099000110009000280d800ba
:1045e000300798005e089000d80407000000e00043
:1045f000030032008080eb00610f980060003700fc
:104600001e007800f00407000000e0000300320004
:104610000080eb00600f9800590037005e089000a2
:104620000000e00017003a009e007800710f98002b
:1046300030032000fe089000808f50000e003200f2
:1046400040042000fe089000808f500004003200db
:104650007e089000f10f5000040032001f00370068
:1046600000032000ed0407001c00370000022000ba
:10467000ea040700190037000000eb00e704070018
:10468000160037009e0078000117980030032000c4
:104690008e109000808f50000e00320040042000e9
:1046a0008e109000808f5000040032000e10900099
:1046b000f10f500004003200080037000004200011
:1046c000d60407000500370000032000d3040700cc
:1046d0000200370000022000d0040700313520001e
:1046e0007e009000f00407000000e00003003200ac
:1046f0008080eb00610f980021003700811e2000b0
:104700000e089000130507000000e00003003200cf
:104710000080eb00600f9800190037007e009000c9
:104720000001e800711e20000e089000310507000e
:104730000000e000030032008080eb00610f980071
:104740000f0037005e08900010000700000178009d
:104750006e029000de019000ce0090003e009000be
:10476000930c07000000e000030032000080eb0023
:10477000600f9800020037008000eb00610f980086
:104780006e0890000080fa00000006000600fa00a3
:10479000000f78001e007800200798002e0090007f
:1047a000e10f50000a0032002e009000e20f50008e
:1047b0000a0032002e0090000000e00001003200ec
:1047c000090037001000200010079800080037008b
:1047d000200020001007980005003700200020006e
:1047e0001007980002003700100020001007980002
:1047f0001e0090000080fa00000006002400fa006d
:10480000000f9800110f9800220f9800330f9800a6
:10481000440f9800550f9800660f98000e089000fe
:1048200070004000000f98001e08900068004000d3
:10483000100f98005e0890000000e00003003200b6
:104840004e0890000000e00003003a000080eb00fa
:10485000700f98001f0137008e0890002e089000fe
:1048600080804000002d2000808f50000300360023
:104870008080eb00710f9800160137009e089000b1
:104880003e08900080804000801e2000808f5000f5
:10489000030036000080eb00700f98000d01370018
:1048a0002e0890004e099000110009000280d800e7
:1048b0008000fd000000e000030032008080eb007b
:1048c000710f9800030137003e0890005e099000c8
:1048d000110009000280d8008000fd000000e00007
:1048e000030032000080eb00700f9800f9003700e1
:1048f0005e089000630060000000e00039003a00ac
:104900004e089000630060000000e00011003a00d3
:1049100000082000000f78004000200010079800d9
:104920005e0890004200de00300798004e089000bc
:104930004200de00200798001e089000640050002e
:10494000100f98000e08900064005000000f9800af
:104950005a0037004e089000610060000000e0003f
:1049600011003a0000042000000f78002000200011
:10497000100798005e0890000000d10030079800f2
:104980004e0890000000d100200798001e089000fb
:104990000080e900100f98000e0890000080e900e8
:1049a000000f98004500370000022000000f78003b
:1049b0001000200010079800de08900031079800d2
:1049c0004e089000200798001e0890000000e900a3
:1049d000100f98000e0890000000e900000f9800ea
:1049e000360037005e089000610060000000e000c3
:1049f00024003a004e089000610060000000e000d2
:104a000011003a0000042000000f78002000200070
:104a1000100798005e0890000000d1003007980051
:104a20004e0890000000d100200798001e0890005a
:104a30000080e900100f98000e0890000080e90047
:104a4000000f98001d00370000022000000f7800c2
:104a50001000200010079800de0890003107980031
:104a60004e089000200798001e0890000000e90002
:104a7000100f98000e0890000000e900000f980049
:104a80000e003700100020001007980000022000e0
:104a9000000f7800ce089000210798005e08900073
:104aa000300798001e0890000000e900100f9800e1
:104ab0000e0890000000e900000f98002e00900002
:104ac0000000e900600798003e0090000000e90047
:104ad000700798002e0890004e0990001100090000
:104ae0000280d800500798003e0890005e099000b0
:104af000110009000280d80040079800102d200006
:104b00001e019000110009000200d800800078000a
:104b10001e0190000e089000811f7800110009000e
:104b20000280d80001017800cf0078006f080700ec
:104b30000000e000030032008080eb00710f98005d
:104b400064003700901e20001e0190001100090033
:104b50000200d800800078001e0190001e0890001e
:104b6000811f7800110009000280d800010178003f
:104b7000cf007800880807000000e0000300320042
:104b80000080eb00700f980052003700811e20005b
:104b90001e089000860807000000e00003003200b5
:104ba0008080eb00710f98004a0037006e0890007b
:104bb0000000e00018003a001e007800001798007e
:104bc000000420008e109000808f50000c003200f6
:104bd000000820008e109000808f50000b003200e3
:104be000000220008e109000808f500001003200e3
:104bf0002000370000c9b3006e0707001d00370012
:104c000000c5b3006b0707001a00370000c1b300ee
:104c100068070700170037001e007800101798007b
:104c2000000420009e109000808f50000c00320085
:104c3000000820009e109000808f50000b00320072
:104c4000000220009e109000808f50000100320072
:104c50000800370000cbb3005607070005003700f7
:104c600000c9b300530707000200370000c5b300b6
:104c7000500707001e007800804078006e08900002
:104c8000ee0707000000e000030032000080eb00a8
:104c9000700f98000f0037006e089000100007009a
:104ca000000178007e029000ee019000de0090008e
:104cb0004e0090003e0b07000000e00003003200b1
:104cc0008080eb00710f9800020037000000eb00bd
:104cd000700f98007e0890000080fa000000060027
:104ce0000600fa00000f78001e00780020079800e8
:104cf0002e009000e10f50000a0032002e009000bc
:104d0000e20f50000a0032002e0090000000e00088
:104d10000100320009003700100020001007980041
:104d20000800370020002000100798000500370019
:104d3000200020001007980002003700100020001b
:104d4000100798001e0090000080fa000000060086
:104d50002400fa00000f9800110f9800220f98000d
:104d6000330f9800440f9800550f9800660f980075
:104d70000e0890004004b000000f98001e0890003c
:104d800064004000100f98005e0890000000e000f2
:104d9000030032004e0890000000e00003003a00db
:104da00010002000700f98001f0137008e0890003f
:104db0002e08900080804000402c2000808f500002
:104dc0000300360021002000710f98001601370003
:104dd0009e0890003e08900080804000401e200009
:104de000808f50000300360030002000700f9800c4
:104df0000d0137002e0890004e09900011000900a7
:104e00000280d8008000fd000000e00003003200b6
:104e100041002000710f9800030137003e08900008
:104e20005e099000110009000280d8008000fd009a
:104e30000000e0000300320050002000700f9800d6
:104e4000f90037005e089000630060000000e00099
:104e500039003a004e089000630060000000e00056
:104e600011003a0000082000000f780040002000e8
:104e7000100798005e0890004200de00300798009e
:104e80004e0890004200de00200798001e089000a7
:104e900064005000100f98000e089000640050004d
:104ea000000f98005a0037004e0890006100600023
:104eb0000000e00011003a0000042000000f78001c
:104ec00020002000100798005e0890000000d1002c
:104ed000300798004e0890000000d100200798008d
:104ee0001e0890000080e900100f98000e08900046
:104ef0000080e900000f9800450037000002200004
:104f0000000f78001000200010079800de089000c5
:104f1000310798004e089000200798001e08900066
:104f20000000e900100f98000e0890000000e90052
:104f3000000f9800360037005e08900061006000a6
:104f40000000e00024003a004e089000610060007c
:104f50000000e00011003a0000042000000f78007b
:104f600020002000100798005e0890000000d1008b
:104f7000300798004e0890000000d10020079800ec
:104f80001e0890000080e900100f98000e089000a5
:104f90000080e900000f98001d003700000220008b
:104fa000000f78001000200010079800de08900025
:104fb000310798004e089000200798001e089000c6
:104fc0000000e900100f98000e0890000000e900b2
:104fd000000f98000e003700100020001007980006
:104fe00000022000000f7800ce08900021079800f2
:104ff0005e089000300798001e0890000000e9004d
:10500000100f98000e0890000000e900000f9800b3
:105010002e0090000000e900600798003e0090001c
:105020000000e900700798002e0890004e099000db
:10503000110009000280d800500798003e08900037
:105040005e099000110009000280d8004007980016
:10505000502c20001e019000110009000200d80011
:10506000800078001e0190000e089000811f7800db
:10507000110009000280d80001017800cf007800fb
:10508000300907000000e00003003200610020004a
:10509000710f980064003700501e20001e01900020
:1050a000110009000200d800800078001e01900065
:1050b0001e089000811f7800110009000280d800ae
:1050c00001017800cf007800490907000000e000e6
:1050d0000300320070002000700f9800520037006b
:1050e000411e20001e089000470907000000e00054
:1050f0000300320081002000710f98004a00370041
:105100006e0890000000e00018003a001e007800d1
:1051100000179800000420008e109000808f50002f
:105120000c003200000820008e109000808f50008c
:105130000b003200000220008e109000808f500083
:10514000010032002000370040c0b30047080700cc
:105150001d00370020c0b300440807001a003700c4
:105160000040eb0041080700170037001e007800e0
:1051700010179800000420009e109000808f5000af
:105180000c003200000820009e109000808f50001c
:105190000b003200000220009e109000808f500013
:1051a000010032000800370050c0b3002f0807008c
:1051b0000500370040c0b3002c080700020037008c
:1051c00020c0b300290807001e0078008040780046
:1051d0006e089000af0807000000e00003003200f6
:1051e00090002000700f98000f0037006e089000ac
:1051f00010000700000178007e029000ee01900090
:10520000de0090004e009000e90907000000e00079
:1052100003003200a1002000710f98000200370047
:105220000000eb00700f98007e0890000080fa00ec
:10523000000006000600fa00000f78001e0078004b
:10524000200798002e009000e10f50000a00320065
:105250002e009000e20f50000a0032002e00900055
:105260000000e000010032000900370010002000bb
:105270001007980008003700200020001007980051
:1052800005003700200020001007980002003700ba
:1052900010002000100798001e0090000080fa0007
:1052a000000006001200fa00000f780011079800b5
:1052b0002207980033079800440798005507980084
:1052c00066079800f0628000000f98000003260037
:1052d0008e089000808f50001300320000032800d9
:1052e0008e089000808f50001900320000032300c8
:1052f0008e089000808f5000010032001e003700a1
:105300006e039000de0290004e029000be019000fd
:105310002e0190009e0090001e007800fdfb07000b
:1053200070079800160037006e039000de029000b0
:105330004e029000be0190002e0190009e00900051
:105340001e0078002dfd0700700798000c00370044
:105350006e039000de0290004e029000be019000ad
:105360002e0190009e0090001e00780078fe07003d
:105370007007980002003700b00020007007980006
:105380007e0090000080fa00000006000600fa008f
:10539000000f780011079800f06280002007980045
:1053a00000032600ae009000808f50000d003200f8
:1053b00000032800ae009000808f50000d003200e6
:1053c00000032300ae009000808f500001003200e7
:1053d0000b0037009e0090001e0078003e02070080
:1053e000070037009e0090001e007800cf060700df
:1053f000030037009e0090001e007800c0080700e0
:105400000080fa00000006000000fa00f16280004f
:1054100000032300808f500001003200010037009c
:10542000160107000080fa00000006000400fa00e0
:10543000520e0700ec0d0700d1a2a9004006200083
:105440001007980004003700000000001e009000c4
:105450000000e900100798001e0090000000e00026
:10546000f9ff3a00d1a2a8004006200010079800da
:1054700004003700000000001e0090000000e9005a
:10548000100798001e0090000000e000f9ff3a00ad
:1054900081e0a900f1048000f0002f00808060000e
:1054a0000066200000804000f00488008040eb008f
:1054b000c0cdb300dc0d07001047980011c0b30049
:1054c000c0cdb300d80d0700004f78001e409000fb
:1054d0000080fb0000004000000040000000400091
:1054e00000004000000040000000400000004000bc
:1054f00000004000800078001e80fb0000807000eb
:10550000f0628800f162800000032300808f500069
:1055100004003a008000eb000000eb009bff070056
:1055200010003700f162800000032600808f5000d9
:1055300004003a00110020001000200093ff070033
:1055400008003700f162800000032800808f5000bf
:1055500004003a008000eb000000eb008bff070026
:1055600038070700a8ff0700f06280000080fa00fb
:10557000000006000800fa00200798003107980094
:1055800032c0bf000080fb00000f78002e009000aa
:1055900032e0b7003e0090001000ba0010079800fb
:1055a0001e00780032e0b7001e0090000080fa0074
:1055b000000006000600fa00f06280002007980054
:1055c00000032600ae009000808f500021003200c2
:1055d00000032800ae009000808f500020003200b1
:1055e00000032300ae009000808f500001003200c5
:1055f0001e003700e1ff2f00f0072000ddff07004d
:1056000063006000100798001e009000e20f500039
:105610000a0032009e009000e38f50000a00320022
:105620001e009000e10f5000010032000900370019
:1056300011002000010f78000e003700200020002c
:10564000000f78000b0037008000eb00010f78009e
:105650000800370010002000000f78000500370018
:1056600011002000010f7800020037000080eb00dd
:10567000000f78001e0078000080fa00000006008d
:105680000600fa00000f780011079800f062800011
:105690002007980000032600ae009000808f500085
:1056a0000d00320000032800ae009000808f5000f3
:1056b0000d00320000032300ae009000808f5000e8
:1056c000010032000b0037009e0090001e007800a1
:1056d0008b030700070037009e0090001e00780033
:1056e0002f060700030037009e0090001e00780080
:1056f000200807000080fa00000006000600fa00fb
:10570000004f78001147980022479800f06280000f
:105710002007980000032600ae009000808f500004
:105720001000320000032800ae009000808f50006f
:105730001100320000032300ae009000808f500063
:1057400001003200100037002e4290009e41900070
:105750001e4190009e40780080c2b300c401070043
:10576000090037002e4190009e4090001e407800b6
:105770002f060700040037002e4190009e40900045
:105780001e4078001f0807000080fa000000060095
:105790000600fa00008fbe00f0628000200798002b
:1057a00000032600ae009000808f50000c003200f5
:1057b00000032800ae009000808f50000b003200e4
:1057c00000032300ae009000808f500001003200e3
:1057d000080037001e00be00bc02070005003700ad
:1057e0001e00be0024060700020037001e00be0097
:1057f000160807000080fa00000006000000fa000a
:10580000f06280000080fa000000060000a0fe00a8
:1058100086a0a9001421ef000000000011408000c4
:10582000a280200013002000321ce100050032009d
:10583000080035000000000000000000000000002b
:10584000f9ff3700a01680004800de00805878007d
:10585000f5ff3700114088000628ec00304080003a
:105860000808e30003003a001000200020408800f0
:105870001fe1a9000080fe00004006000200fa00bf
:10588000e10c07000000eb00000f78000d0037006e
:105890009e00e80080a920000080400010407800b1
:1058a000004178009e00780080a920000080400020
:1058b0001040780080407800c0cdb300fe0c070097
:1058c0001e8fe8009e007800700d2000808f500031
:1058d000efff3600d00c07000080fa000000060041
:1058e0000200fa00881f7800c70c07000000eb00d8
:1058f000000f78000d0037001e04e8009e007800bd
:1059000080a920000080400010407800804078008e
:10591000c0cdb300c40c07008040780080a92000ef
:1059200000004400014878001e8fe8009e007800c7
:10593000700d2000808f5000efff3600b60c07007e
:105940004f0478000080fa00000006000600fa000c
:10595000000f78001e007800200798002e009000ad
:10596000e10f50000a0032002e009000e20f5000bc
:105970000a0032002e0090000000e000010032001a
:1059800009003700c0c0b300dbeab70009003700e8
:1059900080c0b300dbeab7000600370020c0b300c8
:1059a000dbeab700030037000080eb001007980027
:1059b000020037000000eb00100798001e00900066
:1059c0000080fa00000006000400fa00000f7800d2
:1059d000400420009e0f100006003200100120003d
:1059e0009e0f100003003200300320009e0f1000b5
:1059f00005003a001e007800cbeab7000000eb007b
:105a000010079800020037000080eb001007980094
:105a10001e0090000080fa00000006000400fa005a
:105a2000000f78001e00e000150032000002200088
:105a30009e0f100012003200000320009e0f100085
:105a40000f003200000420009e0f10000c003200f6
:105a5000000520009e0f1000090032000006200003
:105a60009e0f100006003200000620009e0f10005e
:105a700003003200000120009e0f100005003a00d4
:105a80001e007800c5eab7000000eb001007980080
:105a9000020037000080eb00100798001e00900005
:105aa0000080fa00000006000a00fa0020079800b3
:105ab00031079800ae0090003e009000808f5000ab
:105ac000030039000080eb00400798001e003700fb
:105ad000be00900030382000808f50000300360058
:105ae0000080eb0040079800170037002e00900060
:105af0000000e900200798002e0090002047980041
:105b00002e0090004800de00304798003e009000d4
:105b1000004f78003e0090004800de0010479800db
:105b20003e409000a1eab7002e409000a3eab700e3
:105b30001e409000a9eab7001e407800abeab7000b
:105b40000000eb00400798004e0090000080fa0033
:105b5000000006000a00fa002007980031079800ac
:105b6000ae0090003e009000808f5000030039008e
:105b70000080eb00400798001b003700be0090003b
:105b8000301f2000808f5000030036000080eb00a3
:105b900040079800140037002e009000204798001e
:105ba0002e0090004800de00304798003e00900034
:105bb000004f78003e0090004800de00104798003b
:105bc0003e409000a5eab7002e409000a7eab7003b
:105bd0001e409000adeab7001e407800afeab70063
:105be0000000eb00400798004e0090000080fa0093
:105bf000000006000e00fa003007980041079800e8
:105c000052079800be0090004e009000808f500018
:105c1000030039000080eb00600798002b0037007c
:105c2000ce009000301f2000808f5000030036000f
:105c30000080eb006007980024003700de00900031
:105c400030382000808f5000030036000080eb00c9
:105c5000600798001d0037003e0090004047980004
:105c60003e0090004800de00504798004e00900033
:105c7000204798004e0090004800de003047980012
:105c80005e009000104798005e0090004800de0023
:105c9000004f78005e40900029ebb7004e40900026
:105ca0002bebb7003e4090002debb7002e4090004c
:105cb0002febb7001e40780031ebb7001e4090007c
:105cc00033ebb7000000eb00600798006e00900017
